{
  "_format": "hh-sol-artifact-1",
  "contractName": "Coco",
  "sourceName": "contracts/Coco.sol",
  "abi": [
    {
      "inputs": [
        {
          "internalType": "string",
          "name": "name",
          "type": "string"
        },
        {
          "internalType": "string",
          "name": "symbol",
          "type": "string"
        },
        {
          "internalType": "address",
          "name": "manager",
          "type": "address"
        }
      ],
      "stateMutability": "nonpayable",
      "type": "constructor"
    },
    {
      "anonymous": false,
      "inputs": [
        {
          "indexed": true,
          "internalType": "address",
          "name": "owner",
          "type": "address"
        },
        {
          "indexed": true,
          "internalType": "address",
          "name": "approved",
          "type": "address"
        },
        {
          "indexed": true,
          "internalType": "uint256",
          "name": "tokenId",
          "type": "uint256"
        }
      ],
      "name": "Approval",
      "type": "event"
    },
    {
      "anonymous": false,
      "inputs": [
        {
          "indexed": true,
          "internalType": "address",
          "name": "owner",
          "type": "address"
        },
        {
          "indexed": true,
          "internalType": "address",
          "name": "operator",
          "type": "address"
        },
        {
          "indexed": false,
          "internalType": "bool",
          "name": "approved",
          "type": "bool"
        }
      ],
      "name": "ApprovalForAll",
      "type": "event"
    },
    {
      "anonymous": false,
      "inputs": [
        {
          "indexed": true,
          "internalType": "address",
          "name": "from",
          "type": "address"
        },
        {
          "indexed": true,
          "internalType": "address",
          "name": "to",
          "type": "address"
        },
        {
          "indexed": true,
          "internalType": "uint256",
          "name": "tokenId",
          "type": "uint256"
        }
      ],
      "name": "Transfer",
      "type": "event"
    },
    {
      "inputs": [
        {
          "internalType": "address",
          "name": "to",
          "type": "address"
        },
        {
          "internalType": "uint256",
          "name": "tokenId",
          "type": "uint256"
        }
      ],
      "name": "approve",
      "outputs": [],
      "stateMutability": "nonpayable",
      "type": "function"
    },
    {
      "inputs": [
        {
          "internalType": "address",
          "name": "owner",
          "type": "address"
        }
      ],
      "name": "balanceOf",
      "outputs": [
        {
          "internalType": "uint256",
          "name": "",
          "type": "uint256"
        }
      ],
      "stateMutability": "view",
      "type": "function"
    },
    {
      "inputs": [
        {
          "internalType": "uint256",
          "name": "tokenId",
          "type": "uint256"
        }
      ],
      "name": "getApproved",
      "outputs": [
        {
          "internalType": "address",
          "name": "",
          "type": "address"
        }
      ],
      "stateMutability": "view",
      "type": "function"
    },
    {
      "inputs": [],
      "name": "getCollectionName",
      "outputs": [
        {
          "internalType": "string",
          "name": "",
          "type": "string"
        }
      ],
      "stateMutability": "view",
      "type": "function"
    },
    {
      "inputs": [
        {
          "internalType": "uint256",
          "name": "tokenId",
          "type": "uint256"
        }
      ],
      "name": "getTokenMetadata",
      "outputs": [
        {
          "internalType": "string",
          "name": "",
          "type": "string"
        }
      ],
      "stateMutability": "view",
      "type": "function"
    },
    {
      "inputs": [
        {
          "internalType": "address",
          "name": "owner",
          "type": "address"
        },
        {
          "internalType": "address",
          "name": "operator",
          "type": "address"
        }
      ],
      "name": "isApprovedForAll",
      "outputs": [
        {
          "internalType": "bool",
          "name": "",
          "type": "bool"
        }
      ],
      "stateMutability": "view",
      "type": "function"
    },
    {
      "inputs": [
        {
          "internalType": "string",
          "name": "tokenURI",
          "type": "string"
        }
      ],
      "name": "mintNFT",
      "outputs": [
        {
          "internalType": "uint256",
          "name": "",
          "type": "uint256"
        }
      ],
      "stateMutability": "payable",
      "type": "function"
    },
    {
      "inputs": [],
      "name": "name",
      "outputs": [
        {
          "internalType": "string",
          "name": "",
          "type": "string"
        }
      ],
      "stateMutability": "view",
      "type": "function"
    },
    {
      "inputs": [],
      "name": "owner",
      "outputs": [
        {
          "internalType": "address",
          "name": "",
          "type": "address"
        }
      ],
      "stateMutability": "view",
      "type": "function"
    },
    {
      "inputs": [
        {
          "internalType": "uint256",
          "name": "tokenId",
          "type": "uint256"
        }
      ],
      "name": "ownerOf",
      "outputs": [
        {
          "internalType": "address",
          "name": "",
          "type": "address"
        }
      ],
      "stateMutability": "view",
      "type": "function"
    },
    {
      "inputs": [
        {
          "internalType": "address",
          "name": "from",
          "type": "address"
        },
        {
          "internalType": "address",
          "name": "to",
          "type": "address"
        },
        {
          "internalType": "uint256",
          "name": "tokenId",
          "type": "uint256"
        }
      ],
      "name": "safeTransferFrom",
      "outputs": [],
      "stateMutability": "nonpayable",
      "type": "function"
    },
    {
      "inputs": [
        {
          "internalType": "address",
          "name": "from",
          "type": "address"
        },
        {
          "internalType": "address",
          "name": "to",
          "type": "address"
        },
        {
          "internalType": "uint256",
          "name": "tokenId",
          "type": "uint256"
        },
        {
          "internalType": "bytes",
          "name": "data",
          "type": "bytes"
        }
      ],
      "name": "safeTransferFrom",
      "outputs": [],
      "stateMutability": "nonpayable",
      "type": "function"
    },
    {
      "inputs": [
        {
          "internalType": "address",
          "name": "operator",
          "type": "address"
        },
        {
          "internalType": "bool",
          "name": "approved",
          "type": "bool"
        }
      ],
      "name": "setApprovalForAll",
      "outputs": [],
      "stateMutability": "nonpayable",
      "type": "function"
    },
    {
      "inputs": [
        {
          "internalType": "bytes4",
          "name": "interfaceId",
          "type": "bytes4"
        }
      ],
      "name": "supportsInterface",
      "outputs": [
        {
          "internalType": "bool",
          "name": "",
          "type": "bool"
        }
      ],
      "stateMutability": "view",
      "type": "function"
    },
    {
      "inputs": [],
      "name": "symbol",
      "outputs": [
        {
          "internalType": "string",
          "name": "",
          "type": "string"
        }
      ],
      "stateMutability": "view",
      "type": "function"
    },
    {
      "inputs": [
        {
          "internalType": "uint256",
          "name": "tokenId",
          "type": "uint256"
        }
      ],
      "name": "tokenURI",
      "outputs": [
        {
          "internalType": "string",
          "name": "",
          "type": "string"
        }
      ],
      "stateMutability": "view",
      "type": "function"
    },
    {
      "inputs": [],
      "name": "totalSupply",
      "outputs": [
        {
          "internalType": "uint256",
          "name": "",
          "type": "uint256"
        }
      ],
      "stateMutability": "view",
      "type": "function"
    },
    {
      "inputs": [
        {
          "internalType": "address",
          "name": "from",
          "type": "address"
        },
        {
          "internalType": "address",
          "name": "to",
          "type": "address"
        },
        {
          "internalType": "uint256",
          "name": "tokenId",
          "type": "uint256"
        }
      ],
      "name": "transferFrom",
      "outputs": [],
      "stateMutability": "nonpayable",
      "type": "function"
    }
  ],
  "bytecode": "0x60806040523480156200001157600080fd5b5060405162002f0438038062002f04833981810160405281019062000037919062000209565b8282816000908051906020019062000051929190620000d0565b5080600190805190602001906200006a929190620000d0565b50505080600860006101000a81548173ffffffffffffffffffffffffffffffffffffffff021916908373ffffffffffffffffffffffffffffffffffffffff1602179055508260099080519060200190620000c6929190620000d0565b505050506200044f565b828054620000de906200035a565b90600052602060002090601f0160209004810192826200010257600085556200014e565b82601f106200011d57805160ff19168380011785556200014e565b828001600101855582156200014e579182015b828111156200014d57825182559160200191906001019062000130565b5b5090506200015d919062000161565b5090565b5b808211156200017c57600081600090555060010162000162565b5090565b6000620001976200019184620002ba565b62000291565b905082815260208101848484011115620001b057600080fd5b620001bd84828562000324565b509392505050565b600081519050620001d68162000435565b92915050565b600082601f830112620001ee57600080fd5b81516200020084826020860162000180565b91505092915050565b6000806000606084860312156200021f57600080fd5b600084015167ffffffffffffffff8111156200023a57600080fd5b6200024886828701620001dc565b935050602084015167ffffffffffffffff8111156200026657600080fd5b6200027486828701620001dc565b92505060406200028786828701620001c5565b9150509250925092565b60006200029d620002b0565b9050620002ab828262000390565b919050565b6000604051905090565b600067ffffffffffffffff821115620002d857620002d7620003f5565b5b620002e38262000424565b9050602081019050919050565b6000620002fd8262000304565b9050919050565b600073ffffffffffffffffffffffffffffffffffffffff82169050919050565b60005b838110156200034457808201518184015260208101905062000327565b8381111562000354576000848401525b50505050565b600060028204905060018216806200037357607f821691505b602082108114156200038a5762000389620003c6565b5b50919050565b6200039b8262000424565b810181811067ffffffffffffffff82111715620003bd57620003bc620003f5565b5b80604052505050565b7f4e487b7100000000000000000000000000000000000000000000000000000000600052602260045260246000fd5b7f4e487b7100000000000000000000000000000000000000000000000000000000600052604160045260246000fd5b6000601f19601f8301169050919050565b6200044081620002f0565b81146200044c57600080fd5b50565b612aa5806200045f6000396000f3fe6080604052600436106101095760003560e01c80636352211e11610095578063a22cb46511610064578063a22cb46514610391578063b88d4fde146103ba578063c87b56dd146103e3578063e985e9c514610420578063fb37e8831461045d57610109565b80636352211e146102c157806370a08231146102fe5780638da5cb5b1461033b57806395d89b411461036657610109565b806318160ddd116100dc57806318160ddd146101dc57806323b872dd1461020757806332045a851461023057806342842e0e1461025b578063603168011461028457610109565b806301ffc9a71461010e57806306fdde031461014b578063081812fc14610176578063095ea7b3146101b3575b600080fd5b34801561011a57600080fd5b5061013560048036038101906101309190611e48565b61048d565b60405161014291906121f4565b60405180910390f35b34801561015757600080fd5b5061016061056f565b60405161016d919061220f565b60405180910390f35b34801561018257600080fd5b5061019d60048036038101906101989190611edb565b610601565b6040516101aa919061218d565b60405180910390f35b3480156101bf57600080fd5b506101da60048036038101906101d59190611e0c565b610647565b005b3480156101e857600080fd5b506101f161075f565b6040516101fe91906123f1565b60405180910390f35b34801561021357600080fd5b5061022e60048036038101906102299190611d06565b610769565b005b34801561023c57600080fd5b506102456107c9565b604051610252919061220f565b60405180910390f35b34801561026757600080fd5b50610282600480360381019061027d9190611d06565b61085b565b005b34801561029057600080fd5b506102ab60048036038101906102a69190611edb565b61087b565b6040516102b8919061220f565b60405180910390f35b3480156102cd57600080fd5b506102e860048036038101906102e39190611edb565b610968565b6040516102f5919061218d565b60405180910390f35b34801561030a57600080fd5b5061032560048036038101906103209190611ca1565b6109ef565b60405161033291906123f1565b60405180910390f35b34801561034757600080fd5b50610350610aa7565b60405161035d919061218d565b60405180910390f35b34801561037257600080fd5b5061037b610ad1565b604051610388919061220f565b60405180910390f35b34801561039d57600080fd5b506103b860048036038101906103b39190611dd0565b610b63565b005b3480156103c657600080fd5b506103e160048036038101906103dc9190611d55565b610b79565b005b3480156103ef57600080fd5b5061040a60048036038101906104059190611edb565b610bdb565b604051610417919061220f565b60405180910390f35b34801561042c57600080fd5b5061044760048036038101906104429190611cca565b610cc8565b60405161045491906121f4565b60405180910390f35b61047760048036038101906104729190611e9a565b610d5c565b60405161048491906123f1565b60405180910390f35b60007f80ac58cd000000000000000000000000000000000000000000000000000000007bffffffffffffffffffffffffffffffffffffffffffffffffffffffff1916827bffffffffffffffffffffffffffffffffffffffffffffffffffffffff1916148061055857507f5b5e139f000000000000000000000000000000000000000000000000000000007bffffffffffffffffffffffffffffffffffffffffffffffffffffffff1916827bffffffffffffffffffffffffffffffffffffffffffffffffffffffff1916145b80610568575061056782610e84565b5b9050919050565b60606000805461057e90612581565b80601f01602080910402602001604051908101604052809291908181526020018280546105aa90612581565b80156105f75780601f106105cc576101008083540402835291602001916105f7565b820191906000526020600020905b8154815290600101906020018083116105da57829003601f168201915b5050505050905090565b600061060c82610eee565b6004600083815260200190815260200160002060009054906101000a900473ffffffffffffffffffffffffffffffffffffffff169050919050565b600061065282610968565b90508073ffffffffffffffffffffffffffffffffffffffff168373ffffffffffffffffffffffffffffffffffffffff1614156106c3576040517f08c379a00000000000000000000000000000000000000000000000000000000081526004016106ba90612391565b60405180910390fd5b8073ffffffffffffffffffffffffffffffffffffffff166106e2610f39565b73ffffffffffffffffffffffffffffffffffffffff16148061071157506107108161070b610f39565b610cc8565b5b610750576040517f08c379a0000000000000000000000000000000000000000000000000000000008152600401610747906123b1565b60405180910390fd5b61075a8383610f41565b505050565b6000600a54905090565b61077a610774610f39565b82610ffa565b6107b9576040517f08c379a00000000000000000000000000000000000000000000000000000000081526004016107b090612231565b60405180910390fd5b6107c483838361108f565b505050565b6060600980546107d890612581565b80601f016020809104026020016040519081016040528092919081815260200182805461080490612581565b80156108515780601f1061082657610100808354040283529160200191610851565b820191906000526020600020905b81548152906001019060200180831161083457829003601f168201915b5050505050905090565b61087683838360405180602001604052806000815250610b79565b505050565b606061088682611389565b6108c5576040517f08c379a00000000000000000000000000000000000000000000000000000000081526004016108bc90612371565b60405180910390fd5b6007600083815260200190815260200160002080546108e390612581565b80601f016020809104026020016040519081016040528092919081815260200182805461090f90612581565b801561095c5780601f106109315761010080835404028352916020019161095c565b820191906000526020600020905b81548152906001019060200180831161093f57829003601f168201915b50505050509050919050565b600080610974836113ca565b9050600073ffffffffffffffffffffffffffffffffffffffff168173ffffffffffffffffffffffffffffffffffffffff1614156109e6576040517f08c379a00000000000000000000000000000000000000000000000000000000081526004016109dd90612351565b60405180910390fd5b80915050919050565b60008073ffffffffffffffffffffffffffffffffffffffff168273ffffffffffffffffffffffffffffffffffffffff161415610a60576040517f08c379a0000000000000000000000000000000000000000000000000000000008152600401610a57906122f1565b60405180910390fd5b600360008373ffffffffffffffffffffffffffffffffffffffff1673ffffffffffffffffffffffffffffffffffffffff168152602001908152602001600020549050919050565b6000600860009054906101000a900473ffffffffffffffffffffffffffffffffffffffff16905090565b606060018054610ae090612581565b80601f0160208091040260200160405190810160405280929190818152602001828054610b0c90612581565b8015610b595780601f10610b2e57610100808354040283529160200191610b59565b820191906000526020600020905b815481529060010190602001808311610b3c57829003601f168201915b5050505050905090565b610b75610b6e610f39565b8383611407565b5050565b610b8a610b84610f39565b83610ffa565b610bc9576040517f08c379a0000000000000000000000000000000000000000000000000000000008152600401610bc090612231565b60405180910390fd5b610bd584848484611574565b50505050565b6060610be682611389565b610c25576040517f08c379a0000000000000000000000000000000000000000000000000000000008152600401610c1c90612371565b60405180910390fd5b600760008381526020019081526020016000208054610c4390612581565b80601f0160208091040260200160405190810160405280929190818152602001828054610c6f90612581565b8015610cbc5780601f10610c9157610100808354040283529160200191610cbc565b820191906000526020600020905b815481529060010190602001808311610c9f57829003601f168201915b50505050509050919050565b6000600560008473ffffffffffffffffffffffffffffffffffffffff1673ffffffffffffffffffffffffffffffffffffffff16815260200190815260200160002060008373ffffffffffffffffffffffffffffffffffffffff1673ffffffffffffffffffffffffffffffffffffffff16815260200190815260200160002060009054906101000a900460ff16905092915050565b6000600860009054906101000a900473ffffffffffffffffffffffffffffffffffffffff1673ffffffffffffffffffffffffffffffffffffffff163373ffffffffffffffffffffffffffffffffffffffff1614610dee576040517f08c379a0000000000000000000000000000000000000000000000000000000008152600401610de5906123d1565b60405180910390fd5b66038d7ea4c680003414610e37576040517f08c379a0000000000000000000000000000000000000000000000000000000008152600401610e2e90612331565b60405180910390fd5b6000610e4360066115d0565b9050610e4f33826115de565b610e5960066115fc565b610e638184611612565b600a6000815480929190610e76906125e4565b919050555080915050919050565b60007f01ffc9a7000000000000000000000000000000000000000000000000000000007bffffffffffffffffffffffffffffffffffffffffffffffffffffffff1916827bffffffffffffffffffffffffffffffffffffffffffffffffffffffff1916149050919050565b610ef781611389565b610f36576040517f08c379a0000000000000000000000000000000000000000000000000000000008152600401610f2d90612351565b60405180910390fd5b50565b600033905090565b816004600083815260200190815260200160002060006101000a81548173ffffffffffffffffffffffffffffffffffffffff021916908373ffffffffffffffffffffffffffffffffffffffff160217905550808273ffffffffffffffffffffffffffffffffffffffff16610fb483610968565b73ffffffffffffffffffffffffffffffffffffffff167f8c5be1e5ebec7d5bd14f71427d1e84f3dd0314c0f7b2291e5b200ac8c7c3b92560405160405180910390a45050565b60008061100683610968565b90508073ffffffffffffffffffffffffffffffffffffffff168473ffffffffffffffffffffffffffffffffffffffff16148061104857506110478185610cc8565b5b8061108657508373ffffffffffffffffffffffffffffffffffffffff1661106e84610601565b73ffffffffffffffffffffffffffffffffffffffff16145b91505092915050565b8273ffffffffffffffffffffffffffffffffffffffff166110af82610968565b73ffffffffffffffffffffffffffffffffffffffff1614611105576040517f08c379a00000000000000000000000000000000000000000000000000000000081526004016110fc90612271565b60405180910390fd5b600073ffffffffffffffffffffffffffffffffffffffff168273ffffffffffffffffffffffffffffffffffffffff161415611175576040517f08c379a000000000000000000000000000000000000000000000000000000000815260040161116c906122b1565b60405180910390fd5b6111828383836001611686565b8273ffffffffffffffffffffffffffffffffffffffff166111a282610968565b73ffffffffffffffffffffffffffffffffffffffff16146111f8576040517f08c379a00000000000000000000000000000000000000000000000000000000081526004016111ef90612271565b60405180910390fd5b6004600082815260200190815260200160002060006101000a81549073ffffffffffffffffffffffffffffffffffffffff02191690556001600360008573ffffffffffffffffffffffffffffffffffffffff1673ffffffffffffffffffffffffffffffffffffffff168152602001908152602001600020600082825403925050819055506001600360008473ffffffffffffffffffffffffffffffffffffffff1673ffffffffffffffffffffffffffffffffffffffff16815260200190815260200160002060008282540192505081905550816002600083815260200190815260200160002060006101000a81548173ffffffffffffffffffffffffffffffffffffffff021916908373ffffffffffffffffffffffffffffffffffffffff160217905550808273ffffffffffffffffffffffffffffffffffffffff168473ffffffffffffffffffffffffffffffffffffffff167fddf252ad1be2c89b69c2b068fc378daa952ba7f163c4a11628f55a4df523b3ef60405160405180910390a4611384838383600161168c565b505050565b60008073ffffffffffffffffffffffffffffffffffffffff166113ab836113ca565b73ffffffffffffffffffffffffffffffffffffffff1614159050919050565b60006002600083815260200190815260200160002060009054906101000a900473ffffffffffffffffffffffffffffffffffffffff169050919050565b8173ffffffffffffffffffffffffffffffffffffffff168373ffffffffffffffffffffffffffffffffffffffff161415611476576040517f08c379a000000000000000000000000000000000000000000000000000000000815260040161146d906122d1565b60405180910390fd5b80600560008573ffffffffffffffffffffffffffffffffffffffff1673ffffffffffffffffffffffffffffffffffffffff16815260200190815260200160002060008473ffffffffffffffffffffffffffffffffffffffff1673ffffffffffffffffffffffffffffffffffffffff16815260200190815260200160002060006101000a81548160ff0219169083151502179055508173ffffffffffffffffffffffffffffffffffffffff168373ffffffffffffffffffffffffffffffffffffffff167f17307eab39ab6107e8899845ad3d59bd9653f200f220920489ca2b5937696c318360405161156791906121f4565b60405180910390a3505050565b61157f84848461108f565b61158b84848484611692565b6115ca576040517f08c379a00000000000000000000000000000000000000000000000000000000081526004016115c190612251565b60405180910390fd5b50505050565b600081600001549050919050565b6115f8828260405180602001604052806000815250611829565b5050565b6001816000016000828254019250508190555050565b61161b82611389565b61165a576040517f08c379a000000000000000000000000000000000000000000000000000000000815260040161165190612371565b60405180910390fd5b80600760008481526020019081526020016000209080519060200190611681929190611ac5565b505050565b50505050565b50505050565b60006116b38473ffffffffffffffffffffffffffffffffffffffff16611884565b1561181c578373ffffffffffffffffffffffffffffffffffffffff1663150b7a026116dc610f39565b8786866040518563ffffffff1660e01b81526004016116fe94939291906121a8565b602060405180830381600087803b15801561171857600080fd5b505af192505050801561174957506040513d601f19601f820116820180604052508101906117469190611e71565b60015b6117cc573d8060008114611779576040519150601f19603f3d011682016040523d82523d6000602084013e61177e565b606091505b506000815114156117c4576040517f08c379a00000000000000000000000000000000000000000000000000000000081526004016117bb90612251565b60405180910390fd5b805181602001fd5b63150b7a0260e01b7bffffffffffffffffffffffffffffffffffffffffffffffffffffffff1916817bffffffffffffffffffffffffffffffffffffffffffffffffffffffff191614915050611821565b600190505b949350505050565b61183383836118a7565b6118406000848484611692565b61187f576040517f08c379a000000000000000000000000000000000000000000000000000000000815260040161187690612251565b60405180910390fd5b505050565b6000808273ffffffffffffffffffffffffffffffffffffffff163b119050919050565b600073ffffffffffffffffffffffffffffffffffffffff168273ffffffffffffffffffffffffffffffffffffffff161415611917576040517f08c379a000000000000000000000000000000000000000000000000000000000815260040161190e90612311565b60405180910390fd5b61192081611389565b15611960576040517f08c379a000000000000000000000000000000000000000000000000000000000815260040161195790612291565b60405180910390fd5b61196e600083836001611686565b61197781611389565b156119b7576040517f08c379a00000000000000000000000000000000000000000000000000000000081526004016119ae90612291565b60405180910390fd5b6001600360008473ffffffffffffffffffffffffffffffffffffffff1673ffffffffffffffffffffffffffffffffffffffff16815260200190815260200160002060008282540192505081905550816002600083815260200190815260200160002060006101000a81548173ffffffffffffffffffffffffffffffffffffffff021916908373ffffffffffffffffffffffffffffffffffffffff160217905550808273ffffffffffffffffffffffffffffffffffffffff16600073ffffffffffffffffffffffffffffffffffffffff167fddf252ad1be2c89b69c2b068fc378daa952ba7f163c4a11628f55a4df523b3ef60405160405180910390a4611ac160008383600161168c565b5050565b828054611ad190612581565b90600052602060002090601f016020900481019282611af35760008555611b3a565b82601f10611b0c57805160ff1916838001178555611b3a565b82800160010185558215611b3a579182015b82811115611b39578251825591602001919060010190611b1e565b5b509050611b479190611b4b565b5090565b5b80821115611b64576000816000905550600101611b4c565b5090565b6000611b7b611b7684612431565b61240c565b905082815260208101848484011115611b9357600080fd5b611b9e84828561253f565b509392505050565b6000611bb9611bb484612462565b61240c565b905082815260208101848484011115611bd157600080fd5b611bdc84828561253f565b509392505050565b600081359050611bf381612a13565b92915050565b600081359050611c0881612a2a565b92915050565b600081359050611c1d81612a41565b92915050565b600081519050611c3281612a41565b92915050565b600082601f830112611c4957600080fd5b8135611c59848260208601611b68565b91505092915050565b600082601f830112611c7357600080fd5b8135611c83848260208601611ba6565b91505092915050565b600081359050611c9b81612a58565b92915050565b600060208284031215611cb357600080fd5b6000611cc184828501611be4565b91505092915050565b60008060408385031215611cdd57600080fd5b6000611ceb85828601611be4565b9250506020611cfc85828601611be4565b9150509250929050565b600080600060608486031215611d1b57600080fd5b6000611d2986828701611be4565b9350506020611d3a86828701611be4565b9250506040611d4b86828701611c8c565b9150509250925092565b60008060008060808587031215611d6b57600080fd5b6000611d7987828801611be4565b9450506020611d8a87828801611be4565b9350506040611d9b87828801611c8c565b925050606085013567ffffffffffffffff811115611db857600080fd5b611dc487828801611c38565b91505092959194509250565b60008060408385031215611de357600080fd5b6000611df185828601611be4565b9250506020611e0285828601611bf9565b9150509250929050565b60008060408385031215611e1f57600080fd5b6000611e2d85828601611be4565b9250506020611e3e85828601611c8c565b9150509250929050565b600060208284031215611e5a57600080fd5b6000611e6884828501611c0e565b91505092915050565b600060208284031215611e8357600080fd5b6000611e9184828501611c23565b91505092915050565b600060208284031215611eac57600080fd5b600082013567ffffffffffffffff811115611ec657600080fd5b611ed284828501611c62565b91505092915050565b600060208284031215611eed57600080fd5b6000611efb84828501611c8c565b91505092915050565b611f0d816124cb565b82525050565b611f1c816124dd565b82525050565b6000611f2d82612493565b611f3781856124a9565b9350611f4781856020860161254e565b611f50816126ba565b840191505092915050565b6000611f668261249e565b611f7081856124ba565b9350611f8081856020860161254e565b611f89816126ba565b840191505092915050565b6000611fa1602d836124ba565b9150611fac826126cb565b604082019050919050565b6000611fc46032836124ba565b9150611fcf8261271a565b604082019050919050565b6000611fe76025836124ba565b9150611ff282612769565b604082019050919050565b600061200a601c836124ba565b9150612015826127b8565b602082019050919050565b600061202d6024836124ba565b9150612038826127e1565b604082019050919050565b60006120506019836124ba565b915061205b82612830565b602082019050919050565b60006120736029836124ba565b915061207e82612859565b604082019050919050565b60006120966020836124ba565b91506120a1826128a8565b602082019050919050565b60006120b96016836124ba565b91506120c4826128d1565b602082019050919050565b60006120dc6018836124ba565b91506120e7826128fa565b602082019050919050565b60006120ff6010836124ba565b915061210a82612923565b602082019050919050565b60006121226021836124ba565b915061212d8261294c565b604082019050919050565b6000612145603d836124ba565b91506121508261299b565b604082019050919050565b6000612168601e836124ba565b9150612173826129ea565b602082019050919050565b61218781612535565b82525050565b60006020820190506121a26000830184611f04565b92915050565b60006080820190506121bd6000830187611f04565b6121ca6020830186611f04565b6121d7604083018561217e565b81810360608301526121e98184611f22565b905095945050505050565b60006020820190506122096000830184611f13565b92915050565b600060208201905081810360008301526122298184611f5b565b905092915050565b6000602082019050818103600083015261224a81611f94565b9050919050565b6000602082019050818103600083015261226a81611fb7565b9050919050565b6000602082019050818103600083015261228a81611fda565b9050919050565b600060208201905081810360008301526122aa81611ffd565b9050919050565b600060208201905081810360008301526122ca81612020565b9050919050565b600060208201905081810360008301526122ea81612043565b9050919050565b6000602082019050818103600083015261230a81612066565b9050919050565b6000602082019050818103600083015261232a81612089565b9050919050565b6000602082019050818103600083015261234a816120ac565b9050919050565b6000602082019050818103600083015261236a816120cf565b9050919050565b6000602082019050818103600083015261238a816120f2565b9050919050565b600060208201905081810360008301526123aa81612115565b9050919050565b600060208201905081810360008301526123ca81612138565b9050919050565b600060208201905081810360008301526123ea8161215b565b9050919050565b6000602082019050612406600083018461217e565b92915050565b6000612416612427565b905061242282826125b3565b919050565b6000604051905090565b600067ffffffffffffffff82111561244c5761244b61268b565b5b612455826126ba565b9050602081019050919050565b600067ffffffffffffffff82111561247d5761247c61268b565b5b612486826126ba565b9050602081019050919050565b600081519050919050565b600081519050919050565b600082825260208201905092915050565b600082825260208201905092915050565b60006124d682612515565b9050919050565b60008115159050919050565b60007fffffffff0000000000000000000000000000000000000000000000000000000082169050919050565b600073ffffffffffffffffffffffffffffffffffffffff82169050919050565b6000819050919050565b82818337600083830152505050565b60005b8381101561256c578082015181840152602081019050612551565b8381111561257b576000848401525b50505050565b6000600282049050600182168061259957607f821691505b602082108114156125ad576125ac61265c565b5b50919050565b6125bc826126ba565b810181811067ffffffffffffffff821117156125db576125da61268b565b5b80604052505050565b60006125ef82612535565b91507fffffffffffffffffffffffffffffffffffffffffffffffffffffffffffffffff8214156126225761262161262d565b5b600182019050919050565b7f4e487b7100000000000000000000000000000000000000000000000000000000600052601160045260246000fd5b7f4e487b7100000000000000000000000000000000000000000000000000000000600052602260045260246000fd5b7f4e487b7100000000000000000000000000000000000000000000000000000000600052604160045260246000fd5b6000601f19601f8301169050919050565b7f4552433732313a2063616c6c6572206973206e6f7420746f6b656e206f776e6560008201527f72206f7220617070726f76656400000000000000000000000000000000000000602082015250565b7f4552433732313a207472616e7366657220746f206e6f6e20455243373231526560008201527f63656976657220696d706c656d656e7465720000000000000000000000000000602082015250565b7f4552433732313a207472616e736665722066726f6d20696e636f72726563742060008201527f6f776e6572000000000000000000000000000000000000000000000000000000602082015250565b7f4552433732313a20746f6b656e20616c7265616479206d696e74656400000000600082015250565b7f4552433732313a207472616e7366657220746f20746865207a65726f2061646460008201527f7265737300000000000000000000000000000000000000000000000000000000602082015250565b7f4552433732313a20617070726f766520746f2063616c6c657200000000000000600082015250565b7f4552433732313a2061646472657373207a65726f206973206e6f74206120766160008201527f6c6964206f776e65720000000000000000000000000000000000000000000000602082015250565b7f4552433732313a206d696e7420746f20746865207a65726f2061646472657373600082015250565b7f496e636f727265637420457468657220616d6f756e7400000000000000000000600082015250565b7f4552433732313a20696e76616c696420746f6b656e2049440000000000000000600082015250565b7f496e76616c696420746f6b656e20494400000000000000000000000000000000600082015250565b7f4552433732313a20617070726f76616c20746f2063757272656e74206f776e6560008201527f7200000000000000000000000000000000000000000000000000000000000000602082015250565b7f4552433732313a20617070726f76652063616c6c6572206973206e6f7420746f60008201527f6b656e206f776e6572206f7220617070726f76656420666f7220616c6c000000602082015250565b7f4f6e6c7920746865206d616e616765722063616e206d696e74204e4654730000600082015250565b612a1c816124cb565b8114612a2757600080fd5b50565b612a33816124dd565b8114612a3e57600080fd5b50565b612a4a816124e9565b8114612a5557600080fd5b50565b612a6181612535565b8114612a6c57600080fd5b5056fea264697066735822122069629809c408737c0a736657614ad3f1c23ba987a967f88117a1845494da176764736f6c63430008010033",
  "linkReferences": {},
  "deployedLinkReferences": {}
}